:100000000C9462000C948A000C948A000C948A0070
:100010000C948A000C948A000C948A000C948A0038
:100020000C948A000C948A000C948A000C948A0028
:100030000C948A000C948A000C948A000C948A0018
:100040000C94D7040C948A000C9447050C94210559
:100050000C948A000C948A000C948A000C948A00F8
:100060000C948A000C948A000000000023002600F3
:10007000290000000000240027002A0000000000E2
:10008000250028002B0004040404040404040202D4
:100090000202020203030303030301020408102007
:1000A0004080010204081020010204081020000012
:1000B0000008000201000003040700000000000027
:1000C0000000BE0511241FBECFEFD8E0DEBFCDBFBC
:1000D00011E0A0E0B1E0E2EAF4E102C005900D9287
:1000E000A238B107D9F722E0A2E8B1E001C01D9221
:1000F000A434B207E1F710E0C2E6D0E004C02197D3
:10010000FE010E94490AC136D107C9F70E940906BB
:100110000C944F0A0C94000090E0FC01E255FF4F54
:100120002491FC01E656FF4F3491FC01EA57FF4F42
:10013000E491EE23C9F0222339F0233001F1A8F431
:10014000213019F1223029F1F0E0EE0FFF1FE458C1
:10015000FF4FA591B4918FB7F894EC91611126C02F
:1001600030953E233C938FBF08952730A9F0283067
:10017000C9F0243049F7809180008F7D03C08091C1
:1001800080008F7780938000DFCF84B58F7784BD28
:10019000DBCF84B58F7DFBCF8091B0008F778093CC
:1001A000B000D2CF8091B0008F7DF9CF3E2BDACF57
:1001B000CF93DF9390E0FC01E656FF4F24918A57DE
:1001C0009F4FFC0184918823D1F090E0880F991F04
:1001D000FC01EE58FF4FA591B491FC01E458FF4F8C
:1001E000C591D49161110EC09FB7F8948C91E22F04
:1001F000E0958E238C932881E223E8839FBFDF91D3
:10020000CF9108958FB7F894EC91E22BEC938FBFC8
:10021000F6CF8E50806480937C0080917A00806459
:1002200080937A0080917A0086FDFCCF80917800DF
:100230009091790008953FB7F89480918B01909147
:100240008C01A0918D01B0918E0126B5A89B05C0AF
:100250002F3F19F00196A11DB11D3FBFBA2FA92F45
:10026000982F8827BC01CD01620F711D811D911D42
:1002700042E0660F771F881F991F4A95D1F70895AE
:100280008F929F92AF92BF92CF92DF92EF92FF92A6
:100290000E941B014B015C0184E6C82ED12CE12C8D
:1002A000F12C0E941B01681979098A099B09683E93
:1002B000734081059105A8F321E0C21AD108E10835
:1002C000F10888EE880E83E0981EA11CB11CC114B1
:1002D000D104E104F10429F7FF90EF90DF90CF9073
:1002E000BF90AF909F908F900895AF92BF92CF92A2
:1002F000DF92EF92FF920F931F93CF93DF936C01E6
:100300007B018B01040F151FEB015E01AE18BF08C6
:10031000C017D10759F06991D601ED91FC91019078
:10032000F081E02DC6010995892B79F7C501DF9190
:10033000CF911F910F91FF90EF90DF90CF90BF90E2
:10034000AF900895FC01538D448D252F30E0842F0C
:1003500090E0821B930B541710F0CF9608950197ED
:100360000895FC01918D828D981761F0A28DAE0FDA
:10037000BF2FB11D5D968C91928D9F5F9F73928F61
:1003800090E008958FEF9FEF0895FC01918D828D8D
:10039000981731F0828DE80FF11D858D90E008955A
:1003A0008FEF9FEF0895FC01918D228D892F90E0B2
:1003B000805C9F4F821B91098F73992708958FE866
:1003C00091E00E94D30121E0892B09F420E0822FE3
:1003D000089580E090E0892B29F00E94DF018111CF
:1003E0000C9400000895FC01A48DA80FB92FB11D35
:1003F000A35ABF4F2C91848D90E001968F7399275B
:10040000848FA689B7892C93A089B1898C91837038
:1004100080648C93938D848D981306C00288F38931
:10042000E02D80818F7D80830895EF92FF920F935E
:100430001F93CF93DF93EC0181E0888F9B8D8C8D90
:1004400098131AC0E889F989808185FF15C09FB784
:10045000F894EE89FF896083E889F9898081837047
:10046000806480839FBF81E090E0DF91CF911F91F6
:100470000F91FF90EF900895F62E0B8D10E00F5F17
:100480001F4F0F731127E02E8C8D8E110CC00FB6ED
:1004900007FCFACFE889F989808185FFF5CFCE0185
:1004A0000E94F301F1CFEB8DEC0FFD2FF11DE35A0C
:1004B000FF4FF0829FB7F8940B8FEA89FB89808108
:1004C0008062CFCFCF93DF93EC01888D8823B9F082
:1004D000AA89BB89E889F9898C9185FD03C080814F
:1004E00086FD0DC00FB607FCF7CF8C9185FFF2CFCC
:1004F000808185FFEDCFCE010E94F301E9CFDF912E
:10050000CF910895089590E080E00895CF93DF9310
:10051000EC0160E08E810E948C0061E08E810E947F
:100520008C0060E08E810E948C008BE891E0019746
:10053000F1F7DF91CF910895CF92DF92EF92FF9282
:100540000F931F93CF93DF936C017C0187E0E80E3C
:10055000F11CD0E0C0E0062F10E0B8010C2E02C064
:10056000759567950A94E2F76170F70181917F01B3
:100570000E948C002196C430D10579F7C601DF9125
:10058000CF911F910F91FF90EF90DF90CF900C943F
:100590008602CF92DF92EF92FF920F931F93CF9339
:1005A000DF93EC01F62E642F8C810E948C008D81EC
:1005B0008F3F19F060E00E948C000F2D10E08F85B6
:1005C00084FF25C06E0187E0C80ED11CF12CE12C00
:1005D000B8010E2C02C0759567950A94E2F7617018
:1005E000F60181916F010E948C00FFEFEF1AFF0A64
:1005F00088E0E816F10461F7CE01DF91CF911F91F9
:100600000F91FF90EF90DF90CF900C948602B8018D
:1006100084E0759567958A95E1F7CE010E949C026A
:100620006F2DCE01DF91CF911F910F91FF90EF9031
:10063000DF90CF900C949C0240E0682F8CE292E017
:100640000C94C90281E00E941C038BE39FE1019797
:10065000F1F70895CF93DF93613029F090913B0239
:10066000986090933B0260933F021092400290E4A6
:100670009093410280934202805C8093430261E048
:10068000809130020E94D800809131028F3F19F092
:1006900061E00E94D80061E0809132020E94D8009F
:1006A000CCE2D2E09E012C52324080913B0284FD8C
:1006B0000BC084E090E021962817390744F461E0EC
:1006C0008E810E94D800EECF88E090E0F4CF8BE3DB
:1006D0009DE00197F1F760E0809130020E948C006C
:1006E00060E0809132020E948C00809131028F3F45
:1006F00019F060E00E948C0080913B0284FD34C0C0
:1007000063E08CE292E00E949C02CBE4D6E4CE014E
:100710000197F1F763E08CE292E00E949C0221973E
:10072000F1F763E08CE292E00E949C0283E592E0A4
:100730000197F1F762E08CE292E00E949C028091C6
:100740003B0280620E941C0384E080933C028CE0A8
:100750000E941C030E94220382E080933D0286E0F7
:10076000DF91CF910C941C0380620E941C038BE4E8
:1007700096E40197F1F780913B0280620E941C038E
:1007800083E592E00197F1F780913B0280620E943D
:100790001C03D5CF90913F02891710F08FEF890F7E
:1007A000E82FF0E0E45DFD4F848980680C941C0321
:1007B00041E00E94C90281E090E00895FB010190B0
:1007C0000020E9F73197AF01461B570BDC01ED9193
:1007D000FC910280F381E02D09948F929F92AF9259
:1007E000BF92EF92FF920F931F93CF93DF93CDB7FA
:1007F000DEB7A1970FB6F894DEBF0FBECDBF7C0168
:10080000FA01CB0119A2223008F42AE08E010F5D13
:100810001F4F822E912CB12CA12CBF01A501940158
:100820000E944008F901CA016A300CF5605DD801E8
:100830006E938D01232B242B252B79F790E080E0FC
:10084000109721F0BD01C7010E94DE03A1960FB6EB
:10085000F894DEBF0FBECDBFDF91CF911F910F91F6
:10086000FF90EF90BF90AF909F908F900895695C3C
:10087000DECFCF92DF92EF92FF92AB01BC0177FF08
:100880001AC06A017C0141E06DE28CE292E00E94B4
:10089000C90244275527BA014C195D096E097F0921
:1008A0002AE08CE292E00E94ED030196FF90EF9027
:1008B000DF90CF9008952AE08CE292E0FF90EF90D5
:1008C000DF90CF900C94ED03BC018CE292E00C948D
:1008D000DE030E94220380E00E94CA038EE191E0C1
:1008E0000E9464046091840170918501072E000CC0
:1008F000880B990B0E9439048BE291E00E946404FA
:1009000081E00E94CA038DE291E00E94640460913C
:10091000820170918301072E000C880B990B0E94B5
:1009200039048BE291E00E94640482E00E94CA03D1
:100930008FE391E00E9464048AE491E00C946404E3
:100940000E94220380E00E94CA038EE191E00E948F
:1009500064046091840170918501072E000C880B5E
:10096000990B0E9439048BE291E00E94640481E0BB
:100970000E94CA038DE291E00E94640460918201AA
:1009800070918301072E000C880B990B0E9439048B
:100990008BE291E00E94640482E00E94CA038FE32C
:1009A00091E00E94640488E691E00C9464041F9234
:1009B0000F920FB60F9211242F933F938F939F9313
:1009C000AF93BF938091870190918801A091890195
:1009D000B0918A013091860123E0230F2D3758F51D
:1009E0000196A11DB11D20938601809387019093EC
:1009F0008801A0938901B0938A0180918B01909125
:100A00008C01A0918D01B0918E010196A11DB11DA7
:100A100080938B0190938C01A0938D01B0938E01F4
:100A2000BF91AF919F918F913F912F910F900FBEEA
:100A30000F901F90189526E8230F0296A11DB11D57
:100A4000D2CF1F920F920FB60F9211242F933F9384
:100A50004F935F936F937F938F939F93AF93BF93C6
:100A6000EF93FF938FE891E00E94F301FF91EF91E4
:100A7000BF91AF919F918F917F916F915F914F91B6
:100A80003F912F910F900FBE0F901F9018951F92BE
:100A90000F920FB60F9211242F938F939F93EF9382
:100AA000FF93E0919F01F091A0018081E091A50169
:100AB000F091A60182FD1BC090818091A8018F5FFB
:100AC0008F732091A901821741F0E091A801F0E015
:100AD000E157FE4F958F8093A801FF91EF919F9171
:100AE0008F912F910F900FBE0F901F9018958081BE
:100AF000F4CFCF92DF92EF92FF920F931F93E82FE4
:100B0000F92F05C0015011092109310961F19081C6
:100B100096239417B9F305C0015011092109310931
:100B200011F1908196239413F7CFC12CD12CE12C95
:100B3000F12C0AC08FEFC81AD80AE80AF80A0C1577
:100B40001D052E053F0579F080818623841791F3DA
:100B50006C2D7D2D8E2D9F2D1F910F91FF90EF906D
:100B6000DF90CF90089560E070E080E090E01F910A
:100B70000F91FF90EF90DF90CF900895EFE8F1E0B4
:100B80001382128288EE93E0A0E0B0E08483958324
:100B9000A683B78384E091E09183808385EC90E025
:100BA0009587848784EC90E09787868780EC90E037
:100BB000918B808B81EC90E0938B828B82EC90E028
:100BC000958B848B86EC90E0978B868B118E128EA2
:100BD000138E148EECE2F2E01382128286E191E031
:100BE000918380838CE084838FEF85838BE0868381
:100BF00088E0878387E0808786E0818785E0828739
:100C00001386148615861686178661E080E10C949B
:100C10002A03789484B5826084BD84B5816084BDE4
:100C200085B5826085BD85B5816085BD80916E008A
:100C3000816080936E0010928100809181008260BB
:100C400080938100809181008160809381008091F8
:100C500080008160809380008091B10084608093E7
:100C6000B1008091B00081608093B00080917A00E3
:100C7000846080937A0080917A00826080937A0009
:100C800080917A00816080937A0080917A008068F8
:100C900080937A001092C10064E084E10E942A03EC
:100CA000E0919F01F091A00182E08083E0919B019F
:100CB000F0919C011082E0919D01F0919E018FECDA
:100CC00080831092A701E091A301F091A40186E036
:100CD0008083E091A101F091A201808180618083F5
:100CE000E091A101F091A201808188608083E09170
:100CF000A101F091A201808180688083E091A1012F
:100D0000F091A20180818F7D808360E089E00E9464
:100D1000D80060E08EE00E94D80061E08AE00E9486
:100D2000D80060E08AE00E948C0061E084E00E94CC
:100D3000D80060E084E00E948C0080E00E94CA033A
:100D40008EE491E00E94640481E00E94CA0386E57B
:100D500091E00E94640482E00E94CA038BE691E065
:100D60000E9464040E9440010E94220393E2292E03
:100D7000312CC0E0D0E060E08AE00E948C0083E08B
:100D800090E00197F1F761E08AE00E948C00C101D8
:100D90000197F1F760E08AE00E948C00E3EAF0E05E
:100DA0006491EFE8F0E08491E82FF0E0EE0FFF1F90
:100DB000E859FF4F8591949100E412E42FE030E070
:100DC000462F0E947905611571058105910529F06D
:100DD0006F5F7F4F8F4F9F4F9F700E941B0926E9C7
:100DE00033E44BE85CE30E94D0090E94E308DB0196
:100DF00024E630E00E94420A2FEF33E040E050E06A
:100E00000E942108790130938501209384018EE0AE
:100E10000E94090124E630E0DC010E94420A2FEF23
:100E200033E040E050E00E942108C9013093830183
:100E300020938201F3E3EF16F1040CF468C026342A
:100E400031050CF060C00E94690460E084E00E94FB
:100E50008C000E9440018FE00E940901BC01990FA3
:100E6000880B990B0E941B0920E030E040EA50E417
:100E70000E94D00920E030E048EC52E40E94D00902
:100E800020E030E040E85AE30E94D0096B017C0189
:100E90004B015C01AC019B010E943D0A62E771E0DD
:100EA00081111AC026013701E89477F82FEF3FEF40
:100EB0004FE75FE7C301B2010E943D0A811141C0C3
:100EC0002FEF3FEF4FE75FE7C301B2010E94DE085B
:100ED0001816BCF566E771E08FE891E00E94DE032A
:100EE0006EE771E08FE891E00E94DE030E9440010E
:100EF000209709F440CF0E94DF01882309F43BCFFB
:100F00000E94000038CF21E4E216F1043CF486355B
:100F1000910584F00E94A00461E098CFE1E4EE1610
:100F2000F10409F498CF863591050CF494CF0E9412
:100F300069048BCF853591050CF08DCF0E94A004FC
:100F4000EBCF2FEF3FEF4FE75FE4C701B6010E9401
:100F5000CB0918161CF46AE771E0BECF2FEF3FEF04
:100F60004FE75FECC701B6010E94DE0887FDF3CFB3
:100F700020E030E0A901C701B6010E94DE0887FF2A
:100F80000BC06DE28FE891E00E9415024601570107
:100F9000B7FAB094B7F8B0942AE037ED43EA5BE3D0
:100FA000C501B4010E9472084B015C010E94EA086D
:100FB0006B017C010E9419099B01AC01C501B401C0
:100FC0000E9471084B015C012AE0B701A6018FE87D
:100FD00091E00E94ED036EE28FE891E00E9415021D
:100FE00020E030E040E251E4C501B4010E94D009A4
:100FF0004B015C010E94EA086B01F12CE12C2AE014
:10100000B701A6018FE891E00E94ED03C701B60188
:101010000E9419099B01AC01C501B4010E9471082D
:1010200020E030E040E251E40E94D0090E94EA084A
:10103000AB0170E060E02AE08FE891E00E94ED03F0
:101040004FCF052E97FB1EF400940E94380857FDE1
:1010500007D00E94400807FC03D04EF40C943808D7
:1010600050954095309521953F4F4F4F5F4F0895D4
:1010700090958095709561957F4F8F4F9F4F089504
:10108000A1E21A2EAA1BBB1BFD010DC0AA1FBB1F8C
:10109000EE1FFF1FA217B307E407F50720F0A21BFE
:1010A000B30BE40BF50B661F771F881F991F1A946B
:1010B00069F760957095809590959B01AC01BD0195
:1010C000CF010895A29FB001B39FC001A39F700DEF
:1010D000811D1124911DB29F700D811D1124911D40
:1010E00008955058BB27AA270E9489080C9491099B
:1010F0000E94830938F00E948A0920F039F49F3F4A
:1011000019F426F40C9480090EF4E095E7FB0C9496
:101110007A09E92F0E94A20958F3BA1762077307E8
:101120008407950720F079F4A6F50C94C4090EF411
:10113000E0950B2EBA2FA02D0B01B90190010C01E7
:10114000CA01A0011124FF27591B99F0593F50F4FF
:10115000503E68F11A16F040A22F232F342F442757
:10116000585FF3CF469537952795A795F04053954F
:10117000C9F77EF41F16BA0B620B730B840BBAF01F
:101180009150A1F0FF0FBB1F661F771F881FC2F78A
:101190000EC0BA0F621F731F841F48F4879577959E
:1011A0006795B795F7959E3F08F0B0CF9395880F58
:1011B00008F09927EE0F9795879508950E94560994
:1011C00008F481E008950E94EA086894B1110C9433
:1011D000C50908950E94AA0988F09F5798F0B92F71
:1011E0009927B751B0F0E1F0660F771F881F991F5C
:1011F0001AF0BA95C9F714C0B13091F00E94C40931
:10120000B1E008950C94C409672F782F8827B85F40
:1012100039F0B93FCCF3869577956795B395D9F7B3
:101220003EF490958095709561957F4F8F4F9F4FBD
:101230000895E89409C097FB3EF4909580957095C9
:1012400061957F4F8F4F9F4F9923A9F0F92F96E912
:10125000BB279395F695879577956795B795F11187
:10126000F8CFFAF4BB0F11F460FF1BC06F5F7F4F24
:101270008F4F9F4F16C0882311F096E911C0772336
:1012800021F09EE8872F762F05C0662371F096E83F
:10129000862F70E060E02AF09A95660F771F881F0E
:1012A000DAF7880F9695879597F90895990F0008B2
:1012B000550FAA0BE0E8FEEF16161706E807F90728
:1012C000C0F012161306E407F50798F0621B730BC3
:1012D000840B950B39F40A2661F0232B242B252B44
:1012E00021F408950A2609F4A140A6958FEF811DE7
:1012F000811D089597F99F6780E870E060E0089588
:101300009FEF80EC089500240A941616170618061D
:101310000906089500240A941216130614060506F9
:101320000895092E0394000C11F4882352F0BB0F8A
:1013300040F4BF2B11F460FF04C06F5F7F4F8F4FED
:101340009F4F089557FD9058440F551F59F05F3F28
:1013500071F04795880F97FB991F61F09F3F79F0D7
:1013600087950895121613061406551FF2CF469559
:10137000F1DF08C0161617061806991FF1CF8695DB
:101380007105610508940895E894BB2766277727BF
:10139000CB0197F908950E94560908F48FEF08953C
:1013A0000E94E3090C9491090E94830938F00E947D
:1013B0008A0920F0952311F00C947A090C94800985
:1013C00011240C94C5090E94A20970F3959FC1F3E2
:1013D000950F50E0551F629FF001729FBB27F00DE3
:1013E000B11D639FAA27F00DB11DAA1F649F662738
:1013F000B00DA11D661F829F2227B00DA11D621F87
:10140000739FB00DA11D621F839FA00D611D221F40
:10141000749F3327A00D611D231F849F600D211D24
:10142000822F762F6A2F11249F5750409AF0F1F0A7
:1014300088234AF0EE0FFF1FBB1F661F771F881F10
:1014400091505040A9F79E3F510580F00C947A09C5
:101450000C94C5095F3FE4F3983ED4F386957795E5
:101460006795B795F795E7959F5FC1F7FE2B880FB6
:10147000911D9695879597F908950E945609880BB6
:10148000990B08950E946208B7FF0895821B930B81
:101490000895EE0FFF1F0590F491E02D0994F89444
:0214A000FFCF7C
:1014A2000000000015027501A2016202D301B10120
:1014B200C50100000000D803750183028202544175
:1014C2004E4B204C4556454C3D200025004D4F4982
:1014D2005354555245205354415455533D200054C2
:1014E200414E4B2050554D503A004F46460057450D
:1014F2004C434F4D45004155544F4D4154454420B6
:1015020049525249474154494F4E00535953544549
:101512004D006E616E00696E66006F7666000D0AA0
:021522000000C7
:00000001FF
